:020000020000FC
:107E000002C0F2C0DBC0DD2724B6D4BF21FA1EF0C9
:107E10008827C5D0F5C0C0EC60E070E0B2E028E192
:107E2000298393E09C838DE0BAD00CE0259A91E001
:107E3000B093810096BBB09BFECF1D9AA8950A9582
:107E4000C9F700938100A4D0813491F4A1D0182FF8
:107E5000AFD082E3143851F081E0123839F08FEC62
:107E6000113821F083E0103809F088278CD081C0C8
:107E7000823494E119F0853419F495E095D079C0F5
:107E8000853539F485D0682F83D0782F660F771F1A
:107E90006FC0863509F57CD0E1E0FF2792E08C3A8F
:107EA00041F476D0803E51F77FD099E097BFE895B6
:107EB00060C0883531F0EE27803519F093E074D03A
:107EC000D4CF66D0803019F08830C9F7E2606CD02A
:107ED00099E097BF8491CACF843609F54DD0FB0154
:107EE0001EF0703708F47FD0A0E052D08D933A177F
:107EF000E1F7A0E05DD02EF0703708F074D062D0CA
:107F000038C0F2BDE1BD8D9180BD84E08FBBF99A90
:107F1000F999FECF31963A95A1F7BF012AC084376F
:107F200079F42AD045D0FB0136F4F2BDE1BDF89AD0
:107F300080B5319601C0859126D03A95A9F7EDCF4D
:107F4000853769F435D0E0E005D0E2E003D0E4E025
:107F500001D00FC0FF2781E287BF849114C086370C
:107F600019F426D0E1E0F4CF813511F488E017D080
:107F70001FD080E108D067CF0BD00AD0382F08D0AF
:107F800080FB089584E1988195FFFDCF8E8308954D
:107F9000888187FFFDCF84FFA8958E810895209367
:107FA0006000809360000895F3DF9A95E9F7082E4A
:107FB000EFDF803239F388E0F2DFFFCF30E8DC0119
:107FC000FB0111D00D901D9091E00ED032963250F1
:107FD000C9F7CF01FB01BC0195E006D091E104D0C7
:107FE000CD011124089593E087B780FDFDCF97BFA1
:047FF000E895089573
:027FFE0001CFB1
:00000001FF
